{
  "contractName": "Stakingpool",
  "abi": [
    {
      "anonymous": false,
      "inputs": [
        {
          "indexed": false,
          "internalType": "address",
          "name": "sender",
          "type": "address"
        },
        {
          "indexed": false,
          "internalType": "uint256",
          "name": "amount",
          "type": "uint256"
        }
      ],
      "name": "NotifyStaked",
      "type": "event"
    },
    {
      "anonymous": false,
      "inputs": [
        {
          "indexed": false,
          "internalType": "address",
          "name": "sender",
          "type": "address"
        },
        {
          "indexed": false,
          "internalType": "uint256",
          "name": "amount",
          "type": "uint256"
        }
      ],
      "name": "NotifyUnStaked",
      "type": "event"
    },
    {
      "anonymous": false,
      "inputs": [
        {
          "indexed": false,
          "internalType": "address",
          "name": "sender",
          "type": "address"
        },
        {
          "indexed": false,
          "internalType": "uint256",
          "name": "Balance",
          "type": "uint256"
        }
      ],
      "name": "Notifyclaimed",
      "type": "event"
    },
    {
      "anonymous": false,
      "inputs": [
        {
          "indexed": true,
          "internalType": "address",
          "name": "previousOwner",
          "type": "address"
        },
        {
          "indexed": true,
          "internalType": "address",
          "name": "newOwner",
          "type": "address"
        }
      ],
      "name": "OwnershipTransferred",
      "type": "event"
    },
    {
      "anonymous": false,
      "inputs": [
        {
          "indexed": false,
          "internalType": "address",
          "name": "account",
          "type": "address"
        }
      ],
      "name": "Paused",
      "type": "event"
    },
    {
      "anonymous": false,
      "inputs": [
        {
          "indexed": false,
          "internalType": "address",
          "name": "account",
          "type": "address"
        }
      ],
      "name": "Unpaused",
      "type": "event"
    },
    {
      "inputs": [
        {
          "internalType": "address",
          "name": "",
          "type": "address"
        }
      ],
      "name": "DROI",
      "outputs": [
        {
          "internalType": "uint256",
          "name": "",
          "type": "uint256"
        }
      ],
      "stateMutability": "view",
      "type": "function",
      "constant": true
    },
    {
      "inputs": [],
      "name": "MCHValue",
      "outputs": [
        {
          "internalType": "uint256",
          "name": "",
          "type": "uint256"
        }
      ],
      "stateMutability": "view",
      "type": "function",
      "constant": true
    },
    {
      "inputs": [
        {
          "internalType": "address",
          "name": "",
          "type": "address"
        }
      ],
      "name": "MROI",
      "outputs": [
        {
          "internalType": "uint256",
          "name": "",
          "type": "uint256"
        }
      ],
      "stateMutability": "view",
      "type": "function",
      "constant": true
    },
    {
      "inputs": [
        {
          "internalType": "address",
          "name": "",
          "type": "address"
        }
      ],
      "name": "ROI",
      "outputs": [
        {
          "internalType": "uint256",
          "name": "",
          "type": "uint256"
        }
      ],
      "stateMutability": "view",
      "type": "function",
      "constant": true
    },
    {
      "inputs": [],
      "name": "StakePeriod",
      "outputs": [
        {
          "internalType": "uint256",
          "name": "",
          "type": "uint256"
        }
      ],
      "stateMutability": "view",
      "type": "function",
      "constant": true
    },
    {
      "inputs": [
        {
          "internalType": "address",
          "name": "",
          "type": "address"
        }
      ],
      "name": "claimable",
      "outputs": [
        {
          "internalType": "uint256",
          "name": "",
          "type": "uint256"
        }
      ],
      "stateMutability": "view",
      "type": "function",
      "constant": true
    },
    {
      "inputs": [
        {
          "internalType": "address",
          "name": "",
          "type": "address"
        }
      ],
      "name": "currentstakeyields",
      "outputs": [
        {
          "internalType": "uint256",
          "name": "",
          "type": "uint256"
        }
      ],
      "stateMutability": "view",
      "type": "function",
      "constant": true
    },
    {
      "inputs": [],
      "name": "mcftoken",
      "outputs": [
        {
          "internalType": "contract MCFToken",
          "name": "",
          "type": "address"
        }
      ],
      "stateMutability": "view",
      "type": "function",
      "constant": true
    },
    {
      "inputs": [],
      "name": "mchtoken",
      "outputs": [
        {
          "internalType": "contract MCHToken",
          "name": "",
          "type": "address"
        }
      ],
      "stateMutability": "view",
      "type": "function",
      "constant": true
    },
    {
      "inputs": [],
      "name": "owner",
      "outputs": [
        {
          "internalType": "address",
          "name": "",
          "type": "address"
        }
      ],
      "stateMutability": "view",
      "type": "function",
      "constant": true
    },
    {
      "inputs": [],
      "name": "paused",
      "outputs": [
        {
          "internalType": "bool",
          "name": "",
          "type": "bool"
        }
      ],
      "stateMutability": "view",
      "type": "function",
      "constant": true
    },
    {
      "inputs": [],
      "name": "renounceOwnership",
      "outputs": [],
      "stateMutability": "nonpayable",
      "type": "function"
    },
    {
      "inputs": [
        {
          "internalType": "address",
          "name": "",
          "type": "address"
        }
      ],
      "name": "stakedBalances",
      "outputs": [
        {
          "internalType": "uint256",
          "name": "",
          "type": "uint256"
        }
      ],
      "stateMutability": "view",
      "type": "function",
      "constant": true
    },
    {
      "inputs": [
        {
          "internalType": "address",
          "name": "",
          "type": "address"
        }
      ],
      "name": "stakedShares",
      "outputs": [
        {
          "internalType": "uint256",
          "name": "",
          "type": "uint256"
        }
      ],
      "stateMutability": "view",
      "type": "function",
      "constant": true
    },
    {
      "inputs": [],
      "name": "totalStakedMcH",
      "outputs": [
        {
          "internalType": "uint256",
          "name": "",
          "type": "uint256"
        }
      ],
      "stateMutability": "view",
      "type": "function",
      "constant": true
    },
    {
      "inputs": [],
      "name": "totalStakedamount",
      "outputs": [
        {
          "internalType": "uint256",
          "name": "",
          "type": "uint256"
        }
      ],
      "stateMutability": "view",
      "type": "function",
      "constant": true
    },
    {
      "inputs": [
        {
          "internalType": "address",
          "name": "newOwner",
          "type": "address"
        }
      ],
      "name": "transferOwnership",
      "outputs": [],
      "stateMutability": "nonpayable",
      "type": "function"
    },
    {
      "inputs": [
        {
          "internalType": "uint256",
          "name": "",
          "type": "uint256"
        }
      ],
      "name": "users",
      "outputs": [
        {
          "internalType": "address",
          "name": "",
          "type": "address"
        }
      ],
      "stateMutability": "view",
      "type": "function",
      "constant": true
    },
    {
      "inputs": [
        {
          "internalType": "address",
          "name": "",
          "type": "address"
        }
      ],
      "name": "vested",
      "outputs": [
        {
          "internalType": "uint256",
          "name": "",
          "type": "uint256"
        }
      ],
      "stateMutability": "view",
      "type": "function",
      "constant": true
    },
    {
      "inputs": [
        {
          "internalType": "contract MCHToken",
          "name": "_mchtoken",
          "type": "address"
        },
        {
          "internalType": "contract MCFToken",
          "name": "_mcftoken",
          "type": "address"
        }
      ],
      "name": "Initialize",
      "outputs": [],
      "stateMutability": "nonpayable",
      "type": "function"
    },
    {
      "inputs": [
        {
          "internalType": "uint256",
          "name": "amount",
          "type": "uint256"
        }
      ],
      "name": "Approvestake",
      "outputs": [],
      "stateMutability": "nonpayable",
      "type": "function"
    },
    {
      "inputs": [
        {
          "internalType": "uint256",
          "name": "amount",
          "type": "uint256"
        }
      ],
      "name": "unstake",
      "outputs": [],
      "stateMutability": "nonpayable",
      "type": "function"
    },
    {
      "inputs": [],
      "name": "distributeRewards",
      "outputs": [],
      "stateMutability": "nonpayable",
      "type": "function"
    },
    {
      "inputs": [],
      "name": "Harvest",
      "outputs": [],
      "stateMutability": "nonpayable",
      "type": "function"
    },
    {
      "inputs": [],
      "name": "calcROI",
      "outputs": [],
      "stateMutability": "nonpayable",
      "type": "function"
    }
  ],
  "bytecode": "0x608060405234801561001057600080fd5b50612cdb806100206000396000f3fe608060405234801561001057600080fd5b50600436106101735760003560e01c80636f4a2cd0116100de578063a2c2dbf011610097578063ce4483f911610071578063ce4483f914610418578063dc90fed014610448578063e893a8a114610464578063f2fde38b1461049457610173565b8063a2c2dbf0146103be578063b45d33cf146103dc578063cc862ef5146103fa57610173565b80636f4a2cd0146103205780637102b7281461032a578063715018a61461035a578063789982c01461036457806380ededfa146103825780638da5cb5b146103a057610173565b8063365b98b211610130578063365b98b21461024a5780633d64e17a1461027a578063402914f51461028457806352a342a4146102b45780635c975abb146102d257806367719223146102f057610173565b8063091b63c1146101785780630eb0c8f31461019457806313677f94146101c45780631460fa87146101f457806319d7c76e146102245780632e17de781461022e575b600080fd5b610192600480360381019061018d91906124ca565b6104b0565b005b6101ae60048036038101906101a9919061243c565b610833565b6040516101bb919061284b565b60405180910390f35b6101de60048036038101906101d9919061243c565b61084b565b6040516101eb919061284b565b60405180910390f35b61020e6004803603810190610209919061243c565b610863565b60405161021b919061284b565b60405180910390f35b61022c61087b565b005b610248600480360381019061024391906124ca565b610ba4565b005b610264600480360381019061025f91906124ca565b610f92565b604051610271919061267f565b60405180910390f35b610282610fd1565b005b61029e6004803603810190610299919061243c565b611300565b6040516102ab919061284b565b60405180910390f35b6102bc611318565b6040516102c9919061284b565b60405180910390f35b6102da61131e565b6040516102e791906126fa565b60405180910390f35b61030a6004803603810190610305919061243c565b611335565b604051610317919061284b565b60405180910390f35b61032861134d565b005b610344600480360381019061033f919061243c565b6116ac565b604051610351919061284b565b60405180910390f35b6103626116c4565b005b61036c611801565b604051610379919061284b565b60405180910390f35b61038a611807565b604051610397919061284b565b60405180910390f35b6103a861180d565b6040516103b5919061267f565b60405180910390f35b6103c6611837565b6040516103d39190612715565b60405180910390f35b6103e461185d565b6040516103f1919061284b565b60405180910390f35b610402611863565b60405161040f9190612730565b60405180910390f35b610432600480360381019061042d919061243c565b611889565b60405161043f919061284b565b60405180910390f35b610462600480360381019061045d919061248e565b6118a1565b005b61047e6004803603810190610479919061243c565b611954565b60405161048b919061284b565b60405180910390f35b6104ae60048036038101906104a9919061243c565b61196c565b005b6104b861131e565b156104f8576040517f08c379a00000000000000000000000000000000000000000000000000000000081526004016104ef906127cb565b60405180910390fd5b60cb54421061050657600080fd5b6000811161051357600080fd5b60c960009054906101000a900473ffffffffffffffffffffffffffffffffffffffff1673ffffffffffffffffffffffffffffffffffffffff166323b872dd3330846040518463ffffffff1660e01b81526004016105729392919061269a565b602060405180830381600087803b15801561058c57600080fd5b505af11580156105a0573d6000803e3d6000fd5b505050506040513d601f19601f820116820180604052508101906105c49190612465565b50600060ce60003373ffffffffffffffffffffffffffffffffffffffff1673ffffffffffffffffffffffffffffffffffffffff1681526020019081526020016000205414156106175761061633611b18565b5b6106698160ce60003373ffffffffffffffffffffffffffffffffffffffff1673ffffffffffffffffffffffffffffffffffffffff16815260200190815260200160002054611bcd90919063ffffffff16565b60ce60003373ffffffffffffffffffffffffffffffffffffffff1673ffffffffffffffffffffffffffffffffffffffff168152602001908152602001600020819055506106c18160d054611bcd90919063ffffffff16565b60d0819055506106de60cc5460d054611be390919063ffffffff16565b60d181905550600061075f6106fe8360d054611bcd90919063ffffffff16565b610751606460ce60003373ffffffffffffffffffffffffffffffffffffffff1673ffffffffffffffffffffffffffffffffffffffff16815260200190815260200160002054611be390919063ffffffff16565b611bf990919063ffffffff16565b90506107b38160cf60003373ffffffffffffffffffffffffffffffffffffffff1673ffffffffffffffffffffffffffffffffffffffff16815260200190815260200160002054611bcd90919063ffffffff16565b60cf60003373ffffffffffffffffffffffffffffffffffffffff1673ffffffffffffffffffffffffffffffffffffffff168152602001908152602001600020819055507fc56736dcf0d4f5e82a639a9147b6843027755e445f6c6379e64fafaf677fc95f33836040516108279291906126d1565b60405180910390a15050565b60cf6020528060005260406000206000915090505481565b60d46020528060005260406000206000915090505481565b60ce6020528060005260406000206000915090505481565b610883611c0f565b73ffffffffffffffffffffffffffffffffffffffff166108a161180d565b73ffffffffffffffffffffffffffffffffffffffff16146108f7576040517f08c379a00000000000000000000000000000000000000000000000000000000081526004016108ee9061280b565b60405180910390fd5b60cb5442101561093c576040517f08c379a00000000000000000000000000000000000000000000000000000000081526004016109339061278b565b60405180910390fd5b60005b60d780549050811015610ba157600060d78281548110610988577f4e487b7100000000000000000000000000000000000000000000000000000000600052603260045260246000fd5b9060005260206000200160009054906101000a900473ffffffffffffffffffffffffffffffffffffffff169050610a1c6064610a0e60d05460cd60008673ffffffffffffffffffffffffffffffffffffffff1673ffffffffffffffffffffffffffffffffffffffff16815260200190815260200160002054611bf990919063ffffffff16565b611be390919063ffffffff16565b60d460008373ffffffffffffffffffffffffffffffffffffffff1673ffffffffffffffffffffffffffffffffffffffff16815260200190815260200160002081905550610ab2600c60d460008473ffffffffffffffffffffffffffffffffffffffff1673ffffffffffffffffffffffffffffffffffffffff16815260200190815260200160002054611bf990919063ffffffff16565b60d360008373ffffffffffffffffffffffffffffffffffffffff1673ffffffffffffffffffffffffffffffffffffffff16815260200190815260200160002081905550610b4961016d60d460008473ffffffffffffffffffffffffffffffffffffffff1673ffffffffffffffffffffffffffffffffffffffff16815260200190815260200160002054611bf990919063ffffffff16565b60d260008373ffffffffffffffffffffffffffffffffffffffff1673ffffffffffffffffffffffffffffffffffffffff1681526020019081526020016000208190555050600181610b9a9190612877565b905061093f565b50565b60cb54421015610be9576040517f08c379a0000000000000000000000000000000000000000000000000000000008152600401610be09061278b565b60405180910390fd5b610bf161131e565b15610c31576040517f08c379a0000000000000000000000000000000000000000000000000000000008152600401610c28906127cb565b60405180910390fd5b60008111610c74576040517f08c379a0000000000000000000000000000000000000000000000000000000008152600401610c6b906127ab565b60405180910390fd5b60c960009054906101000a900473ffffffffffffffffffffffffffffffffffffffff1673ffffffffffffffffffffffffffffffffffffffff1663a9059cbb33836040518363ffffffff1660e01b8152600401610cd19291906126d1565b602060405180830381600087803b158015610ceb57600080fd5b505af1158015610cff573d6000803e3d6000fd5b505050506040513d601f19601f82011682018060405250810190610d239190612465565b50610d768160ce60003373ffffffffffffffffffffffffffffffffffffffff1673ffffffffffffffffffffffffffffffffffffffff16815260200190815260200160002054611c1790919063ffffffff16565b60ce60003373ffffffffffffffffffffffffffffffffffffffff1673ffffffffffffffffffffffffffffffffffffffff16815260200190815260200160002081905550610dce8160d054611c1790919063ffffffff16565b60d081905550610deb60cc5460d054611be390919063ffffffff16565b60d1819055506000610e6c610e0b8360d054611c1790919063ffffffff16565b610e5e606460ce60003373ffffffffffffffffffffffffffffffffffffffff1673ffffffffffffffffffffffffffffffffffffffff16815260200190815260200160002054611be390919063ffffffff16565b611bf990919063ffffffff16565b9050610ec08160cf60003373ffffffffffffffffffffffffffffffffffffffff1673ffffffffffffffffffffffffffffffffffffffff16815260200190815260200160002054611c1790919063ffffffff16565b60cf60003373ffffffffffffffffffffffffffffffffffffffff1673ffffffffffffffffffffffffffffffffffffffff16815260200190815260200160002081905550600060ce60003373ffffffffffffffffffffffffffffffffffffffff1673ffffffffffffffffffffffffffffffffffffffff168152602001908152602001600020541415610f5557610f5433611c2d565b5b7ff0e91367580c56e4492696972a791ee0ea6c1b7cd991e98fb05acd88c438554f3383604051610f869291906126d1565b60405180910390a15050565b60d78181548110610fa257600080fd5b906000526020600020016000915054906101000a900473ffffffffffffffffffffffffffffffffffffffff1681565b60cb54421015611016576040517f08c379a000000000000000000000000000000000000000000000000000000000815260040161100d9061278b565b60405180910390fd5b61101e61131e565b1561105e576040517f08c379a0000000000000000000000000000000000000000000000000000000008152600401611055906127cb565b60405180910390fd5b600260015414156110a4576040517f08c379a000000000000000000000000000000000000000000000000000000000815260040161109b9061282b565b60405180910390fd5b6002600181905550600060d560003373ffffffffffffffffffffffffffffffffffffffff1673ffffffffffffffffffffffffffffffffffffffff16815260200190815260200160002054905060008111611133576040517f08c379a000000000000000000000000000000000000000000000000000000000815260040161112a9061274b565b60405180910390fd5b60ca60009054906101000a900473ffffffffffffffffffffffffffffffffffffffff1673ffffffffffffffffffffffffffffffffffffffff1663a9059cbb33836040518363ffffffff1660e01b81526004016111909291906126d1565b602060405180830381600087803b1580156111aa57600080fd5b505af11580156111be573d6000803e3d6000fd5b505050506040513d601f19601f820116820180604052508101906111e29190612465565b506112358160cd60003373ffffffffffffffffffffffffffffffffffffffff1673ffffffffffffffffffffffffffffffffffffffff16815260200190815260200160002054611c1790919063ffffffff16565b60cd60003373ffffffffffffffffffffffffffffffffffffffff1673ffffffffffffffffffffffffffffffffffffffff16815260200190815260200160002081905550600060d560003373ffffffffffffffffffffffffffffffffffffffff1673ffffffffffffffffffffffffffffffffffffffff168152602001908152602001600020819055507fa3c231ff0a3f5311deb1bc60b33827c06f9c4f088c392e494bd71545f5e7466433826040516112ee9291906126d1565b60405180910390a15060018081905550565b60d56020528060005260406000206000915090505481565b60d15481565b6000606560009054906101000a900460ff16905090565b60cd6020528060005260406000206000915090505481565b611355611c0f565b73ffffffffffffffffffffffffffffffffffffffff1661137361180d565b73ffffffffffffffffffffffffffffffffffffffff16146113c9576040517f08c379a00000000000000000000000000000000000000000000000000000000081526004016113c09061280b565b60405180910390fd5b60cb5442101561140e576040517f08c379a00000000000000000000000000000000000000000000000000000000081526004016114059061278b565b60405180910390fd5b60005b60d7805490508110156116a957600060d7828154811061145a577f4e487b7100000000000000000000000000000000000000000000000000000000600052603260045260246000fd5b9060005260206000200160009054906101000a900473ffffffffffffffffffffffffffffffffffffffff169050600061149282611e3a565b90506114e68160cd60008573ffffffffffffffffffffffffffffffffffffffff1673ffffffffffffffffffffffffffffffffffffffff16815260200190815260200160002054611bcd90919063ffffffff16565b60cd60008473ffffffffffffffffffffffffffffffffffffffff1673ffffffffffffffffffffffffffffffffffffffff1681526020019081526020016000208190555061157c600260cd60008573ffffffffffffffffffffffffffffffffffffffff1673ffffffffffffffffffffffffffffffffffffffff16815260200190815260200160002054611bf990919063ffffffff16565b60d660008473ffffffffffffffffffffffffffffffffffffffff1673ffffffffffffffffffffffffffffffffffffffff1681526020019081526020016000208190555061165060d660008473ffffffffffffffffffffffffffffffffffffffff1673ffffffffffffffffffffffffffffffffffffffff1681526020019081526020016000205460cd60008573ffffffffffffffffffffffffffffffffffffffff1673ffffffffffffffffffffffffffffffffffffffff16815260200190815260200160002054611c1790919063ffffffff16565b60d560008473ffffffffffffffffffffffffffffffffffffffff1673ffffffffffffffffffffffffffffffffffffffff1681526020019081526020016000208190555050506001816116a29190612877565b9050611411565b50565b60d66020528060005260406000206000915090505481565b6116cc611c0f565b73ffffffffffffffffffffffffffffffffffffffff166116ea61180d565b73ffffffffffffffffffffffffffffffffffffffff1614611740576040517f08c379a00000000000000000000000000000000000000000000000000000000081526004016117379061280b565b60405180910390fd5b600073ffffffffffffffffffffffffffffffffffffffff16609760009054906101000a900473ffffffffffffffffffffffffffffffffffffffff1673ffffffffffffffffffffffffffffffffffffffff167f8be0079c531659141344cd1fd0a4f28419497f9722a3daafe3b4186f6b6457e060405160405180910390a36000609760006101000a81548173ffffffffffffffffffffffffffffffffffffffff021916908373ffffffffffffffffffffffffffffffffffffffff160217905550565b60d05481565b60cb5481565b6000609760009054906101000a900473ffffffffffffffffffffffffffffffffffffffff16905090565b60ca60009054906101000a900473ffffffffffffffffffffffffffffffffffffffff1681565b60cc5481565b60c960009054906101000a900473ffffffffffffffffffffffffffffffffffffffff1681565b60d36020528060005260406000206000915090505481565b6118a9611f92565b6118b1612114565b6118b96121f4565b8160c960006101000a81548173ffffffffffffffffffffffffffffffffffffffff021916908373ffffffffffffffffffffffffffffffffffffffff1602179055508060ca60006101000a81548173ffffffffffffffffffffffffffffffffffffffff021916908373ffffffffffffffffffffffffffffffffffffffff1602179055506213c6804261194a9190612877565b60cb819055505050565b60d26020528060005260406000206000915090505481565b611974611c0f565b73ffffffffffffffffffffffffffffffffffffffff1661199261180d565b73ffffffffffffffffffffffffffffffffffffffff16146119e8576040517f08c379a00000000000000000000000000000000000000000000000000000000081526004016119df9061280b565b60405180910390fd5b600073ffffffffffffffffffffffffffffffffffffffff168173ffffffffffffffffffffffffffffffffffffffff161415611a58576040517f08c379a0000000000000000000000000000000000000000000000000000000008152600401611a4f9061276b565b60405180910390fd5b8073ffffffffffffffffffffffffffffffffffffffff16609760009054906101000a900473ffffffffffffffffffffffffffffffffffffffff1673ffffffffffffffffffffffffffffffffffffffff167f8be0079c531659141344cd1fd0a4f28419497f9722a3daafe3b4186f6b6457e060405160405180910390a380609760006101000a81548173ffffffffffffffffffffffffffffffffffffffff021916908373ffffffffffffffffffffffffffffffffffffffff16021790555050565b611b2061180d565b73ffffffffffffffffffffffffffffffffffffffff168173ffffffffffffffffffffffffffffffffffffffff161415611b5857611bca565b611b61816122e8565b611bc95760d7819080600181540180825580915050600190039060005260206000200160009091909190916101000a81548173ffffffffffffffffffffffffffffffffffffffff021916908373ffffffffffffffffffffffffffffffffffffffff1602179055505b5b50565b60008183611bdb9190612877565b905092915050565b60008183611bf191906128fe565b905092915050565b60008183611c0791906128cd565b905092915050565b600033905090565b60008183611c259190612958565b905092915050565b611c3561180d565b73ffffffffffffffffffffffffffffffffffffffff168173ffffffffffffffffffffffffffffffffffffffff161415611c6d57611e37565b600060d860008373ffffffffffffffffffffffffffffffffffffffff1673ffffffffffffffffffffffffffffffffffffffff168152602001908152602001600020549050611cca600160d780549050611c1790919063ffffffff16565b811015611e1b57600060d7611cee600160d780549050611c1790919063ffffffff16565b81548110611d25577f4e487b7100000000000000000000000000000000000000000000000000000000600052603260045260246000fd5b9060005260206000200160009054906101000a900473ffffffffffffffffffffffffffffffffffffffff1690508060d78381548110611d8d577f4e487b7100000000000000000000000000000000000000000000000000000000600052603260045260246000fd5b9060005260206000200160006101000a81548173ffffffffffffffffffffffffffffffffffffffff021916908373ffffffffffffffffffffffffffffffffffffffff1602179055508160d860008373ffffffffffffffffffffffffffffffffffffffff1673ffffffffffffffffffffffffffffffffffffffff16815260200190815260200160002081905550505b611e34600160d780549050611c1790919063ffffffff16565b50505b50565b600060cb54421015611e81576040517f08c379a0000000000000000000000000000000000000000000000000000000008152600401611e789061278b565b60405180910390fd5b600060ca60009054906101000a900473ffffffffffffffffffffffffffffffffffffffff1673ffffffffffffffffffffffffffffffffffffffff166318160ddd6040518163ffffffff1660e01b815260040160206040518083038186803b158015611eeb57600080fd5b505afa158015611eff573d6000803e3d6000fd5b505050506040513d601f19601f82011682018060405250810190611f2391906124f3565b9050611f8a6064611f7c8360cf60008873ffffffffffffffffffffffffffffffffffffffff1673ffffffffffffffffffffffffffffffffffffffff16815260200190815260200160002054611be390919063ffffffff16565b611bf990919063ffffffff16565b915050919050565b600060019054906101000a900460ff1680611fb8575060008054906101000a900460ff16155b611ff7576040517f08c379a0000000000000000000000000000000000000000000000000000000008152600401611fee906127eb565b60405180910390fd5b60008060019054906101000a900460ff161590508015612047576001600060016101000a81548160ff02191690831515021790555060016000806101000a81548160ff0219169083151502179055505b6000612051611c0f565b905080609760006101000a81548173ffffffffffffffffffffffffffffffffffffffff021916908373ffffffffffffffffffffffffffffffffffffffff1602179055508073ffffffffffffffffffffffffffffffffffffffff16600073ffffffffffffffffffffffffffffffffffffffff167f8be0079c531659141344cd1fd0a4f28419497f9722a3daafe3b4186f6b6457e060405160405180910390a35080156121115760008060016101000a81548160ff0219169083151502179055505b50565b600060019054906101000a900460ff168061213a575060008054906101000a900460ff16155b612179576040517f08c379a0000000000000000000000000000000000000000000000000000000008152600401612170906127eb565b60405180910390fd5b60008060019054906101000a900460ff1615905080156121c9576001600060016101000a81548160ff02191690831515021790555060016000806101000a81548160ff0219169083151502179055505b6001808190555080156121f15760008060016101000a81548160ff0219169083151502179055505b50565b600060019054906101000a900460ff168061221a575060008054906101000a900460ff16155b612259576040517f08c379a0000000000000000000000000000000000000000000000000000000008152600401612250906127eb565b60405180910390fd5b60008060019054906101000a900460ff1615905080156122a9576001600060016101000a81548160ff02191690831515021790555060016000806101000a81548160ff0219169083151502179055505b6000606560006101000a81548160ff02191690831515021790555080156122e55760008060016101000a81548160ff0219169083151502179055505b50565b600080600090505b60d7805490508110156123b35760d78181548110612337577f4e487b7100000000000000000000000000000000000000000000000000000000600052603260045260246000fd5b9060005260206000200160009054906101000a900473ffffffffffffffffffffffffffffffffffffffff1673ffffffffffffffffffffffffffffffffffffffff168373ffffffffffffffffffffffffffffffffffffffff16141561239f5760019150506123b9565b6001816123ac9190612877565b90506122f0565b50600090505b919050565b6000813590506123cd81612c32565b92915050565b6000815190506123e281612c49565b92915050565b6000813590506123f781612c60565b92915050565b60008135905061240c81612c77565b92915050565b60008135905061242181612c8e565b92915050565b60008151905061243681612c8e565b92915050565b60006020828403121561244e57600080fd5b600061245c848285016123be565b91505092915050565b60006020828403121561247757600080fd5b6000612485848285016123d3565b91505092915050565b600080604083850312156124a157600080fd5b60006124af858286016123fd565b92505060206124c0858286016123e8565b9150509250929050565b6000602082840312156124dc57600080fd5b60006124ea84828501612412565b91505092915050565b60006020828403121561250557600080fd5b600061251384828501612427565b91505092915050565b6125258161298c565b82525050565b6125348161299e565b82525050565b612543816129f8565b82525050565b61255281612a1c565b82525050565b6000612565601383612866565b915061257082612a9e565b602082019050919050565b6000612588602683612866565b915061259382612ac7565b604082019050919050565b60006125ab601983612866565b91506125b682612b16565b602082019050919050565b60006125ce601d83612866565b91506125d982612b3f565b602082019050919050565b60006125f1601083612866565b91506125fc82612b68565b602082019050919050565b6000612614602e83612866565b915061261f82612b91565b604082019050919050565b6000612637602083612866565b915061264282612be0565b602082019050919050565b600061265a601f83612866565b915061266582612c09565b602082019050919050565b612679816129ee565b82525050565b6000602082019050612694600083018461251c565b92915050565b60006060820190506126af600083018661251c565b6126bc602083018561251c565b6126c96040830184612670565b949350505050565b60006040820190506126e6600083018561251c565b6126f36020830184612670565b9392505050565b600060208201905061270f600083018461252b565b92915050565b600060208201905061272a600083018461253a565b92915050565b60006020820190506127456000830184612549565b92915050565b6000602082019050818103600083015261276481612558565b9050919050565b600060208201905081810360008301526127848161257b565b9050919050565b600060208201905081810360008301526127a48161259e565b9050919050565b600060208201905081810360008301526127c4816125c1565b9050919050565b600060208201905081810360008301526127e4816125e4565b9050919050565b6000602082019050818103600083015261280481612607565b9050919050565b600060208201905081810360008301526128248161262a565b9050919050565b600060208201905081810360008301526128448161264d565b9050919050565b60006020820190506128606000830184612670565b92915050565b600082825260208201905092915050565b6000612882826129ee565b915061288d836129ee565b9250827fffffffffffffffffffffffffffffffffffffffffffffffffffffffffffffffff038211156128c2576128c1612a40565b5b828201905092915050565b60006128d8826129ee565b91506128e3836129ee565b9250826128f3576128f2612a6f565b5b828204905092915050565b6000612909826129ee565b9150612914836129ee565b9250817fffffffffffffffffffffffffffffffffffffffffffffffffffffffffffffffff048311821515161561294d5761294c612a40565b5b828202905092915050565b6000612963826129ee565b915061296e836129ee565b92508282101561298157612980612a40565b5b828203905092915050565b6000612997826129ce565b9050919050565b60008115159050919050565b60006129b58261298c565b9050919050565b60006129c78261298c565b9050919050565b600073ffffffffffffffffffffffffffffffffffffffff82169050919050565b6000819050919050565b6000612a0382612a0a565b9050919050565b6000612a15826129ce565b9050919050565b6000612a2782612a2e565b9050919050565b6000612a39826129ce565b9050919050565b7f4e487b7100000000000000000000000000000000000000000000000000000000600052601160045260246000fd5b7f4e487b7100000000000000000000000000000000000000000000000000000000600052601260045260246000fd5b7f62616c616e63652063616e6e6f74206265203000000000000000000000000000600082015250565b7f4f776e61626c653a206e6577206f776e657220697320746865207a65726f206160008201527f6464726573730000000000000000000000000000000000000000000000000000602082015250565b7f5374616b65506572696f64206e6f7420636f6d706c6574656400000000000000600082015250565b7f756e7374616b696e672062616c616e63652063616e6e6f742062652030000000600082015250565b7f5061757361626c653a2070617573656400000000000000000000000000000000600082015250565b7f496e697469616c697a61626c653a20636f6e747261637420697320616c72656160008201527f647920696e697469616c697a6564000000000000000000000000000000000000602082015250565b7f4f776e61626c653a2063616c6c6572206973206e6f7420746865206f776e6572600082015250565b7f5265656e7472616e637947756172643a207265656e7472616e742063616c6c00600082015250565b612c3b8161298c565b8114612c4657600080fd5b50565b612c528161299e565b8114612c5d57600080fd5b50565b612c69816129aa565b8114612c7457600080fd5b50565b612c80816129bc565b8114612c8b57600080fd5b50565b612c97816129ee565b8114612ca257600080fd5b5056fea26469706673582212206a516e54cd1a5151f75563d7dc6e1af512321796d59c8fab3ccacb67299e6cba64736f6c63430008030033",
  "immutableReferences": {},
  "source": "pragma solidity ^0.8.0;\n\nimport \"@openzeppelin/contracts-upgradeable/utils/math/SafeMathUpgradeable.sol\";\nimport \"@openzeppelin/contracts-upgradeable/security/PausableUpgradeable.sol\";\nimport \"@openzeppelin/contracts-upgradeable/token/ERC20/IERC20Upgradeable.sol\";\nimport \"@openzeppelin/contracts-upgradeable/security/ReentrancyGuardUpgradeable.sol\";\nimport \"@openzeppelin/contracts-upgradeable/proxy/utils/Initializable.sol\";\nimport \"@openzeppelin/contracts-upgradeable/access/OwnableUpgradeable.sol\";\n\n\n\nimport {MCHToken} from \"./MCHToken.sol\";\nimport {MCFToken} from\"./MCFToken.sol\";\n\n\n\n/* @title Staking Pool Contract\n * Open Zeppelin Pausable  */\n\ncontract Stakingpool is Initializable,ReentrancyGuardUpgradeable,PausableUpgradeable ,OwnableUpgradeable{\n  \n  using SafeMathUpgradeable for uint;\n  \n  MCHToken public mchtoken;\n  MCFToken public mcftoken;\n  uint public StakePeriod;\n  \n  uint public MCHValue;\n  \n  \n /** @dev track total current stake yields of a user */\n   mapping(address => uint) public currentstakeyields;\n   \n   /** @dev track Stakedbalances of user*/\n  mapping(address => uint) public stakedBalances;\n  \n  /** @dev track StakedShares of user */\n  mapping(address => uint) public stakedShares;\n  \n  /** @dev track total staked amount of tokens of all users */\n  uint public totalStakedMcH;\n  \n  /** @dev track total staked value of all users */\n  uint public totalStakedamount;\n  \n /** @dev track Daily Rate of Investment */\n mapping(address => uint) public DROI;\n  \n /** @dev track Monthly Rate of Investment */\n  mapping(address => uint) public MROI;\n  \n /** @dev track Annual Rate of Investment */ \n  mapping(address => uint) public ROI;\n  \n  /** @dev track claimable tokens */ \n  mapping(address => uint) public claimable;\n  \n  /** @dev track vested tokens */  \n  mapping(address => uint) public vested;\n  \n   /** @dev track users\n    * users must be tracked in this array because mapping is not iterable */\n  address[] public users;\n  \n   /** @dev track index by address added to users */\n  mapping(address => uint) private userIndex;\n\n  uint NoUsers;\n  \n \n /** @dev trigger notification of staked amount\n    * @param sender       msg.sender for the transaction\n    * @param amount       msg.value for the transaction\n    */\n  event NotifyStaked(address sender, uint amount);\n  \n  /** @dev trigger notification of unstaked amount\n    * @param sender       msg.sender for the transaction\n    * @param amount       msg.value for the transaction\n    */\n  event NotifyUnStaked(address sender, uint amount);\n\n\n  // @dev trigger notification of claimed amount\n  event Notifyclaimed(address sender,uint Balance);\n \n    /**\n     * @dev Throws if called before stakingperiod\n     */\n    modifier  onlyAfter() {\n        \n       require(block.timestamp >= StakePeriod ,\"StakePeriod not completed\");\n        _;\n    }\n\n\n // @dev contract Initializable\n    \n    function Initialize (MCHToken _mchtoken, MCFToken _mcftoken) public {\n    \n   __Ownable_init_unchained(); \n   __ReentrancyGuard_init_unchained();\n   __Pausable_init_unchained();\n     mchtoken = _mchtoken;\n     mcftoken = _mcftoken;\n     StakePeriod = block.timestamp + 15 days;\n    \n  }\n\n  /************************ USER MANAGEMENT ***********************/\n\n  /** @dev test if user is in current user list\n    * @param user address of user to test if in list\n    * @return true if user is on record, otherwise false\n    */\n  function isExistingUser(address user) internal view returns (bool) {\n    \n      for(uint256 i=0;i<users.length;i+=1) {\n          if(user ==users[i]) return(true);\n      }\n      \n    return (false);\n  }\n  /** @dev remove a user from users array\n    * @param user address of user to remove from the list\n    */\n  function removeUser(address user) internal {\n    if (user == owner() ) return;\n    uint index = userIndex[user];\n    // user is not last user\n    if (index < users.length.sub(1)) {\n      address lastUser = users[users.length.sub(1)];\n      users[index] = lastUser;\n      userIndex[lastUser] = index;\n    }\n    // this line removes last user\n    users.length.sub(1);\n  }\n\n  /** @dev add a user to users array\n    * @param user address of user to add to the list\n    */\n   function addUser(address user) internal {\n    if (user == owner() ) return;\n    if (!isExistingUser(user)) users.push(user);\n   }\n  /************************ USER MANAGEMENT ***********************/\n\n  \n   \n  /** @dev stake funds to Contract\n    */\n  function Approvestake(uint amount) external whenNotPaused {\n      require (block.timestamp < StakePeriod );\n      require(amount > 0);\n      \n     // Transfer Mock  tokens to this contract for staking\n     mchtoken.transferFrom(msg.sender, address(this), amount);\n    \n    if(stakedBalances[msg.sender] == 0) addUser(msg.sender);\n       stakedBalances[msg.sender] = stakedBalances[msg.sender].add(amount);\n       \n       \n    // track total staked\n    totalStakedMcH = totalStakedMcH.add(amount);\n    totalStakedamount =  totalStakedMcH.mul(MCHValue);\n    uint shares = (stakedBalances[msg.sender].mul(100)).div(totalStakedMcH.add(amount));\n    stakedShares[msg.sender] = stakedShares[msg.sender].add(shares);\n    \n    emit NotifyStaked(msg.sender, amount);\n  }\n\n\n  /** @dev unstake funds from Pool\n    */\n  function unstake(uint amount) external  onlyAfter() whenNotPaused {\n    \n    require(amount > 0, \"unstaking balance cannot be 0\");\n\n    // Transfer Mocktokens \n    mchtoken.transfer(msg.sender, amount);\n\n    // Reset staking balance\n    stakedBalances[msg.sender] = stakedBalances[msg.sender].sub(amount);\n    \n    // track total staked\n    totalStakedMcH = totalStakedMcH.sub(amount);\n    totalStakedamount =  totalStakedMcH.mul(MCHValue);\n    uint shares = (stakedBalances[msg.sender].mul(100)).div(totalStakedMcH.sub(amount));\n    stakedShares[msg.sender] = stakedShares[msg.sender].sub(shares);\n    \n    if(stakedBalances[msg.sender] == 0) removeUser(msg.sender);\n\n\n    emit NotifyUnStaked(msg.sender, amount);\n  \n   }\n\n  \n    function calcRewards(address user) internal view onlyAfter() returns(uint) {\n     \n     uint mcftokensEmitted = mcftoken.totalSupply();\n     return (stakedShares[user].mul(mcftokensEmitted)).div(100);\n   }\n  \n  \n  \n   function distributeRewards() external onlyOwner() onlyAfter() {\n       \n       for (uint256 i = 0; i < users.length; i += 1) {\n           address user = users[i];\n           uint256 reward = calcRewards(user);\n           currentstakeyields[user] = currentstakeyields[user].add(reward);\n           vested[user] = currentstakeyields[user].div(2);\n           claimable[user]=currentstakeyields[user].sub(vested[user]);\n      }\n   }\n\n    function Harvest() external onlyAfter() whenNotPaused nonReentrant() {\n        \n        uint256 Balance = claimable[msg.sender];\n       // Require amount greater than 0\n        require(Balance > 0, \"balance cannot be 0\");\n        mcftoken.transfer(msg.sender, Balance);\n       // payable(msg.sender).transfer(balance);\n        currentstakeyields[msg.sender] = currentstakeyields[msg.sender].sub(Balance);\n        claimable[msg.sender] = 0;\n\n       emit Notifyclaimed(msg.sender,Balance);\n    \n    }\n  \n   function calcROI() external onlyOwner() onlyAfter() {\n     \n      for (uint256 i = 0; i < users.length; i += 1) {\n        address user = users[i];\n        ROI[user] =  (currentstakeyields[user].div(totalStakedMcH)).mul(100);\n        MROI[user] = (ROI[user]).div(12);\n        DROI[user] = (ROI[user]).div(365);\n       \n       }\n    }\n\n}",
  "sourcePath": "G:/LATLAT/stakingpool1(1)/stakingpool1/contracts/Stakingpool.sol",
  "compiler": {
    "name": "solc",
    "version": "0.8.3+commit.8d00100c.Emscripten.clang"
  },
  "schemaVersion": "3.3.4",
  "updatedAt": "2021-04-20T19:05:09.435Z",
  "networkType": "ethereum",
  "devdoc": {
    "events": {
      "NotifyStaked(address,uint256)": {
        "details": "trigger notification of staked amount",
        "params": {
          "amount": "msg.value for the transaction",
          "sender": "msg.sender for the transaction"
        }
      },
      "NotifyUnStaked(address,uint256)": {
        "details": "trigger notification of unstaked amount",
        "params": {
          "amount": "msg.value for the transaction",
          "sender": "msg.sender for the transaction"
        }
      }
    },
    "kind": "dev",
    "methods": {
      "Approvestake(uint256)": {
        "details": "stake funds to Contract"
      },
      "owner()": {
        "details": "Returns the address of the current owner."
      },
      "paused()": {
        "details": "Returns true if the contract is paused, and false otherwise."
      },
      "renounceOwnership()": {
        "details": "Leaves the contract without owner. It will not be possible to call `onlyOwner` functions anymore. Can only be called by the current owner. NOTE: Renouncing ownership will leave the contract without an owner, thereby removing any functionality that is only available to the owner."
      },
      "transferOwnership(address)": {
        "details": "Transfers ownership of the contract to a new account (`newOwner`). Can only be called by the current owner."
      },
      "unstake(uint256)": {
        "details": "unstake funds from Pool"
      }
    },
    "stateVariables": {
      "DROI": {
        "details": "track Daily Rate of Investment "
      },
      "MROI": {
        "details": "track Monthly Rate of Investment "
      },
      "ROI": {
        "details": "track Annual Rate of Investment "
      },
      "claimable": {
        "details": "track claimable tokens "
      },
      "currentstakeyields": {
        "details": "track total current stake yields of a user "
      },
      "stakedBalances": {
        "details": "track Stakedbalances of user"
      },
      "stakedShares": {
        "details": "track StakedShares of user "
      },
      "totalStakedMcH": {
        "details": "track total staked amount of tokens of all users "
      },
      "totalStakedamount": {
        "details": "track total staked value of all users "
      },
      "userIndex": {
        "details": "track index by address added to users "
      },
      "users": {
        "details": "track users users must be tracked in this array because mapping is not iterable "
      },
      "vested": {
        "details": "track vested tokens "
      }
    },
    "version": 1
  },
  "userdoc": {
    "kind": "user",
    "methods": {},
    "version": 1
  }
}